{
  "contractName": "Enrollment",
  "abi": [
    {
      "inputs": [],
      "payable": false,
      "stateMutability": "nonpayable",
      "type": "constructor"
    },
    {
      "anonymous": false,
      "inputs": [
        {
          "indexed": false,
          "internalType": "string",
          "name": "title",
          "type": "string"
        }
      ],
      "name": "ConferenceExpire",
      "type": "event"
    },
    {
      "anonymous": false,
      "inputs": [
        {
          "indexed": false,
          "internalType": "string",
          "name": "title",
          "type": "string"
        }
      ],
      "name": "MyNewConference",
      "type": "event"
    },
    {
      "anonymous": false,
      "inputs": [
        {
          "indexed": false,
          "internalType": "string",
          "name": "title",
          "type": "string"
        },
        {
          "indexed": false,
          "internalType": "string",
          "name": "detail",
          "type": "string"
        }
      ],
      "name": "NewConference",
      "type": "event"
    },
    {
      "constant": true,
      "inputs": [],
      "name": "admin",
      "outputs": [
        {
          "internalType": "address",
          "name": "",
          "type": "address"
        }
      ],
      "payable": false,
      "stateMutability": "view",
      "type": "function"
    },
    {
      "constant": true,
      "inputs": [
        {
          "internalType": "uint256",
          "name": "",
          "type": "uint256"
        }
      ],
      "name": "conferences",
      "outputs": [
        {
          "internalType": "string",
          "name": "title",
          "type": "string"
        },
        {
          "internalType": "string",
          "name": "detail",
          "type": "string"
        },
        {
          "internalType": "uint256",
          "name": "max",
          "type": "uint256"
        },
        {
          "internalType": "uint256",
          "name": "current",
          "type": "uint256"
        }
      ],
      "payable": false,
      "stateMutability": "view",
      "type": "function"
    },
    {
      "constant": true,
      "inputs": [
        {
          "internalType": "address",
          "name": "",
          "type": "address"
        }
      ],
      "name": "participants",
      "outputs": [
        {
          "internalType": "string",
          "name": "name",
          "type": "string"
        },
        {
          "internalType": "string",
          "name": "extra",
          "type": "string"
        },
        {
          "internalType": "bool",
          "name": "signIn",
          "type": "bool"
        }
      ],
      "payable": false,
      "stateMutability": "view",
      "type": "function"
    },
    {
      "constant": false,
      "inputs": [
        {
          "internalType": "string",
          "name": "username",
          "type": "string"
        },
        {
          "internalType": "string",
          "name": "extra",
          "type": "string"
        }
      ],
      "name": "signUp",
      "outputs": [
        {
          "internalType": "string",
          "name": "",
          "type": "string"
        },
        {
          "internalType": "string",
          "name": "",
          "type": "string"
        }
      ],
      "payable": false,
      "stateMutability": "nonpayable",
      "type": "function"
    },
    {
      "constant": false,
      "inputs": [
        {
          "internalType": "string",
          "name": "title",
          "type": "string"
        }
      ],
      "name": "enroll",
      "outputs": [
        {
          "internalType": "string",
          "name": "",
          "type": "string"
        }
      ],
      "payable": false,
      "stateMutability": "nonpayable",
      "type": "function"
    },
    {
      "constant": false,
      "inputs": [
        {
          "internalType": "string",
          "name": "title",
          "type": "string"
        },
        {
          "internalType": "string",
          "name": "detail",
          "type": "string"
        },
        {
          "internalType": "uint256",
          "name": "max",
          "type": "uint256"
        }
      ],
      "name": "newConference",
      "outputs": [
        {
          "internalType": "string",
          "name": "",
          "type": "string"
        }
      ],
      "payable": false,
      "stateMutability": "nonpayable",
      "type": "function"
    },
    {
      "constant": true,
      "inputs": [],
      "name": "queryConfList",
      "outputs": [
        {
          "internalType": "string[]",
          "name": "",
          "type": "string[]"
        }
      ],
      "payable": false,
      "stateMutability": "view",
      "type": "function"
    },
    {
      "constant": true,
      "inputs": [],
      "name": "queryMyConf",
      "outputs": [
        {
          "internalType": "string[]",
          "name": "",
          "type": "string[]"
        }
      ],
      "payable": false,
      "stateMutability": "view",
      "type": "function"
    },
    {
      "constant": false,
      "inputs": [
        {
          "internalType": "address",
          "name": "addr",
          "type": "address"
        }
      ],
      "name": "delegate",
      "outputs": [
        {
          "internalType": "address",
          "name": "",
          "type": "address"
        }
      ],
      "payable": false,
      "stateMutability": "nonpayable",
      "type": "function"
    },
    {
      "constant": false,
      "inputs": [
        {
          "internalType": "string",
          "name": "username",
          "type": "string"
        },
        {
          "internalType": "string",
          "name": "title",
          "type": "string"
        }
      ],
      "name": "enrollFor",
      "outputs": [
        {
          "internalType": "string",
          "name": "",
          "type": "string"
        }
      ],
      "payable": false,
      "stateMutability": "nonpayable",
      "type": "function"
    }
  ],
  "bytecode": "0x608060405234801561001057600080fd5b50336000806101000a81548173ffffffffffffffffffffffffffffffffffffffff021916908373ffffffffffffffffffffffffffffffffffffffff1602179055506128fd806100606000396000f3fe608060405234801561001057600080fd5b506004361061009e5760003560e01c806379fe9a9a1161006657806379fe9a9a14610183578063a469a332146101b6578063bf3d6af8146101e7578063f851a44014610205578063fa936afa146102235761009e565b806309e69ede146100a3578063312e1d29146100d55780635c19a95c146100f357806361f572611461012357806367b09cdb14610153575b600080fd5b6100bd60048036036100b89190810190611f68565b610253565b6040516100cc939291906125af565b60405180910390f35b6100dd6103ba565b6040516100ea9190612534565b60405180910390f35b61010d60048036036101089190810190611f68565b61067d565b60405161011a9190612519565b60405180910390f35b61013d6004803603610138919081019061203e565b6107c7565b60405161014a9190612556565b60405180910390f35b61016d60048036036101689190810190611f91565b6109f9565b60405161017a9190612556565b60405180910390f35b61019d600480360361019891908101906120bd565b610e35565b6040516101ad94939291906125f4565b60405180910390f35b6101d060048036036101cb9190810190611fd2565b610fa2565b6040516101de929190612578565b60405180910390f35b6101ef61136b565b6040516101fc9190612534565b60405180910390f35b61020d611494565b60405161021a9190612519565b60405180910390f35b61023d60048036036102389190810190611fd2565b6114b9565b60405161024a9190612556565b60405180910390f35b6001602052806000526040600020600091509050806000018054600181600116156101000203166002900480601f0160208091040260200160405190810160405280929190818152602001828054600181600116156101000203166002900480156102ff5780601f106102d4576101008083540402835291602001916102ff565b820191906000526020600020905b8154815290600101906020018083116102e257829003601f168201915b505050505090806001018054600181600116156101000203166002900480601f01602080910402602001604051908101604052809291908181526020018280546001816001161561010002031660029004801561039d5780601f106103725761010080835404028352916020019161039d565b820191906000526020600020905b81548152906001019060200180831161038057829003601f168201915b5050505050908060030160009054906101000a900460ff16905083565b6060600080905060008090505b60048054905081101561042c57600481815481106103e157fe5b9060005260206000209060040201600201546004828154811061040057fe5b906000526020600020906004020160030154101561041f576002820191505b80806001019150506103c7565b5060608160405190808252806020026020018201604052801561046357816020015b606081526020019060019003908161044e5790505b5090506000915060008090505b600480549050811015610674576004818154811061048a57fe5b906000526020600020906004020160020154600482815481106104a957fe5b906000526020600020906004020160030154101561066757600481815481106104ce57fe5b90600052602060002090600402016000018054600181600116156101000203166002900480601f0160208091040260200160405190810160405280929190818152602001828054600181600116156101000203166002900480156105735780601f1061054857610100808354040283529160200191610573565b820191906000526020600020905b81548152906001019060200180831161055657829003601f168201915b505050505082848151811061058457fe5b60200260200101819052506004818154811061059c57fe5b90600052602060002090600402016001018054600181600116156101000203166002900480601f0160208091040260200160405190810160405280929190818152602001828054600181600116156101000203166002900480156106415780601f1061061657610100808354040283529160200191610641565b820191906000526020600020905b81548152906001019060200180831161062457829003601f168201915b505050505082600185018151811061065557fe5b60200260200101819052506002830192505b8080600101915050610470565b50809250505090565b6000600260008373ffffffffffffffffffffffffffffffffffffffff1673ffffffffffffffffffffffffffffffffffffffff168152602001908152602001600020600160003373ffffffffffffffffffffffffffffffffffffffff1673ffffffffffffffffffffffffffffffffffffffff168152602001908152602001600020908060018154018082558091505090600182039060005260206000209060040201600090919290919091506000820181600001908054600181600116156101000203166002900461074f929190611c5a565b5060018201816001019080546001816001161561010002031660029004610777929190611c5a565b50600282018160020190805461078e929190611ce1565b506003820160009054906101000a900460ff168160030160006101000a81548160ff021916908315150217905550505050819050919050565b60606000809054906101000a900473ffffffffffffffffffffffffffffffffffffffff1673ffffffffffffffffffffffffffffffffffffffff163373ffffffffffffffffffffffffffffffffffffffff1614610858576040517f08c379a000000000000000000000000000000000000000000000000000000000815260040161084f90612667565b60405180910390fd5b6004604051806080016040528086815260200185815260200184815260200160008152509080600181540180825580915050906001820390600052602060002090600402016000909192909190915060008201518160000190805190602001906108c3929190611d51565b5060208201518160010190805190602001906108e0929190611d51565b5060408201518160020155606082015181600301555050507f130973d222f867ce0ba56247f5740bdd4f4cc047281c3395197edbab007b51478484604051610929929190612578565b60405180910390a160046001600480549050038154811061094657fe5b90600052602060002090600402016000018054600181600116156101000203166002900480601f0160208091040260200160405190810160405280929190818152602001828054600181600116156101000203166002900480156109eb5780601f106109c0576101008083540402835291602001916109eb565b820191906000526020600020905b8154815290600101906020018083116109ce57829003601f168201915b505050505090509392505050565b606060008090505b600480549050811015610cac57828051906020012060048281548110610a2357fe5b9060005260206000209060040201600001604051610a4191906124d4565b60405180910390201415610c9f5760048181548110610a5c57fe5b90600052602060002090600402016002015460048281548110610a7b57fe5b90600052602060002090600402016003015410610acd576040517f08c379a0000000000000000000000000000000000000000000000000000000008152600401610ac4906126c7565b60405180910390fd5b600160048281548110610adc57fe5b9060005260206000209060040201600301540160048281548110610afc57fe5b90600052602060002090600402016003018190555060048181548110610b1e57fe5b90600052602060002090600402016002015460048281548110610b3d57fe5b9060005260206000209060040201600301541415610b8d577f4116eed53c5dbdbaa5ceb05d02a470f96b83428606acdc17b43009818c246f5f83604051610b849190612556565b60405180910390a15b6000600160003373ffffffffffffffffffffffffffffffffffffffff1673ffffffffffffffffffffffffffffffffffffffff16815260200190815260200160002060030160006101000a81548160ff021916908315150217905550600160003373ffffffffffffffffffffffffffffffffffffffff1673ffffffffffffffffffffffffffffffffffffffff168152602001908152602001600020600201839080600181540180825580915050906001820390600052602060002001600090919290919091509080519060200190610c65929190611dd1565b50507ff36e073ee6557003aa9d3b0e015128c61a86d7e168c94aa1acc92f932a404fa083604051610c969190612556565b60405180910390a15b8080600101915050610a01565b506000600160003373ffffffffffffffffffffffffffffffffffffffff1673ffffffffffffffffffffffffffffffffffffffff16815260200190815260200160002060020180549050905060008111610d3a576040517f08c379a0000000000000000000000000000000000000000000000000000000008152600401610d3190612687565b60405180910390fd5b600160003373ffffffffffffffffffffffffffffffffffffffff1673ffffffffffffffffffffffffffffffffffffffff1681526020019081526020016000206002016001820381548110610d8a57fe5b906000526020600020018054600181600116156101000203166002900480601f016020809104026020016040519081016040528092919081815260200182805460018160011615610100020316600290048015610e285780601f10610dfd57610100808354040283529160200191610e28565b820191906000526020600020905b815481529060010190602001808311610e0b57829003601f168201915b5050505050915050919050565b60048181548110610e4257fe5b9060005260206000209060040201600091509050806000018054600181600116156101000203166002900480601f016020809104026020016040519081016040528092919081815260200182805460018160011615610100020316600290048015610eee5780601f10610ec357610100808354040283529160200191610eee565b820191906000526020600020905b815481529060010190602001808311610ed157829003601f168201915b505050505090806001018054600181600116156101000203166002900480601f016020809104026020016040519081016040528092919081815260200182805460018160011615610100020316600290048015610f8c5780601f10610f6157610100808354040283529160200191610f8c565b820191906000526020600020905b815481529060010190602001808311610f6f57829003601f168201915b5050505050908060020154908060030154905084565b6060806000600160003373ffffffffffffffffffffffffffffffffffffffff1673ffffffffffffffffffffffffffffffffffffffff168152602001908152602001600020600001805460018160011615610100020316600290049050111561103f576040517f08c379a0000000000000000000000000000000000000000000000000000000008152600401611036906126a7565b60405180910390fd5b83600160003373ffffffffffffffffffffffffffffffffffffffff1673ffffffffffffffffffffffffffffffffffffffff1681526020019081526020016000206000019080519060200190611095929190611dd1565b5082600160003373ffffffffffffffffffffffffffffffffffffffff1673ffffffffffffffffffffffffffffffffffffffff16815260200190815260200160002060010190805190602001906110ec929190611dd1565b5060018060003373ffffffffffffffffffffffffffffffffffffffff1673ffffffffffffffffffffffffffffffffffffffff16815260200190815260200160002060030160006101000a81548160ff0219169083151502179055503360038560405161115891906124eb565b908152602001604051809103902060006101000a81548173ffffffffffffffffffffffffffffffffffffffff021916908373ffffffffffffffffffffffffffffffffffffffff160217905550600160003373ffffffffffffffffffffffffffffffffffffffff1673ffffffffffffffffffffffffffffffffffffffff168152602001908152602001600020600001600160003373ffffffffffffffffffffffffffffffffffffffff1673ffffffffffffffffffffffffffffffffffffffff168152602001908152602001600020600101818054600181600116156101000203166002900480601f0160208091040260200160405190810160405280929190818152602001828054600181600116156101000203166002900480156112bd5780601f10611292576101008083540402835291602001916112bd565b820191906000526020600020905b8154815290600101906020018083116112a057829003601f168201915b50505050509150808054600181600116156101000203166002900480601f0160208091040260200160405190810160405280929190818152602001828054600181600116156101000203166002900480156113595780601f1061132e57610100808354040283529160200191611359565b820191906000526020600020905b81548152906001019060200180831161133c57829003601f168201915b50505050509050915091509250929050565b6060600160003373ffffffffffffffffffffffffffffffffffffffff1673ffffffffffffffffffffffffffffffffffffffff168152602001908152602001600020600201805480602002602001604051908101604052809291908181526020016000905b8282101561148b578382906000526020600020018054600181600116156101000203166002900480601f0160208091040260200160405190810160405280929190818152602001828054600181600116156101000203166002900480156114775780601f1061144c57610100808354040283529160200191611477565b820191906000526020600020905b81548152906001019060200180831161145a57829003601f168201915b5050505050815260200190600101906113cf565b50505050905090565b6000809054906101000a900473ffffffffffffffffffffffffffffffffffffffff1681565b60606000809050600080905060008090505b600260003373ffffffffffffffffffffffffffffffffffffffff1673ffffffffffffffffffffffffffffffffffffffff168152602001908152602001600020805490508110156115ac578580519060200120600260003373ffffffffffffffffffffffffffffffffffffffff1673ffffffffffffffffffffffffffffffffffffffff168152602001908152602001600020828154811061156757fe5b906000526020600020906004020160000160405161158591906124d4565b6040518091039020141561159f57600192508091506115ac565b80806001019150506114cb565b5060011515821515146115f4576040517f08c379a00000000000000000000000000000000000000000000000000000000081526004016115eb90612647565b60405180910390fd5b60008090505b60048054905081101561199e5784805190602001206004828154811061161c57fe5b906000526020600020906004020160000160405161163a91906124d4565b60405180910390201415611991576004818154811061165557fe5b9060005260206000209060040201600201546004828154811061167457fe5b906000526020600020906004020160030154106116c6576040517f08c379a00000000000000000000000000000000000000000000000000000000081526004016116bd906126c7565b60405180910390fd5b6001600482815481106116d557fe5b90600052602060002090600402016003015401600482815481106116f557fe5b9060005260206000209060040201600301819055506004818154811061171757fe5b9060005260206000209060040201600201546004828154811061173657fe5b9060005260206000209060040201600301541415611786577f4116eed53c5dbdbaa5ceb05d02a470f96b83428606acdc17b43009818c246f5f8560405161177d9190612556565b60405180910390a15b600160006003600260003373ffffffffffffffffffffffffffffffffffffffff1673ffffffffffffffffffffffffffffffffffffffff16815260200190815260200160002085815481106117d657fe5b90600052602060002090600402016000016040516117f49190612502565b908152602001604051809103902060009054906101000a900473ffffffffffffffffffffffffffffffffffffffff1673ffffffffffffffffffffffffffffffffffffffff1673ffffffffffffffffffffffffffffffffffffffff16815260200190815260200160002060020185908060018154018082558091505090600182039060005260206000200160009091929091909150908051906020019061189b929190611dd1565b50506000600160006003600260003373ffffffffffffffffffffffffffffffffffffffff1673ffffffffffffffffffffffffffffffffffffffff16815260200190815260200160002086815481106118ef57fe5b906000526020600020906004020160000160405161190d9190612502565b908152602001604051809103902060009054906101000a900473ffffffffffffffffffffffffffffffffffffffff1673ffffffffffffffffffffffffffffffffffffffff1673ffffffffffffffffffffffffffffffffffffffff16815260200190815260200160002060030160006101000a81548160ff0219169083151502179055505b80806001019150506115fa565b506000600160006003600260003373ffffffffffffffffffffffffffffffffffffffff1673ffffffffffffffffffffffffffffffffffffffff16815260200190815260200160002085815481106119f157fe5b9060005260206000209060040201600001604051611a0f9190612502565b908152602001604051809103902060009054906101000a900473ffffffffffffffffffffffffffffffffffffffff1673ffffffffffffffffffffffffffffffffffffffff1673ffffffffffffffffffffffffffffffffffffffff16815260200190815260200160002060020180549050905060008111611ac4576040517f08c379a0000000000000000000000000000000000000000000000000000000008152600401611abb90612687565b60405180910390fd5b600160006003600260003373ffffffffffffffffffffffffffffffffffffffff1673ffffffffffffffffffffffffffffffffffffffff1681526020019081526020016000208581548110611b1457fe5b9060005260206000209060040201600001604051611b329190612502565b908152602001604051809103902060009054906101000a900473ffffffffffffffffffffffffffffffffffffffff1673ffffffffffffffffffffffffffffffffffffffff1673ffffffffffffffffffffffffffffffffffffffff1681526020019081526020016000206002016001820381548110611bac57fe5b906000526020600020018054600181600116156101000203166002900480601f016020809104026020016040519081016040528092919081815260200182805460018160011615610100020316600290048015611c4a5780601f10611c1f57610100808354040283529160200191611c4a565b820191906000526020600020905b815481529060010190602001808311611c2d57829003601f168201915b5050505050935050505092915050565b828054600181600116156101000203166002900490600052602060002090601f016020900481019282601f10611c935780548555611cd0565b82800160010185558215611cd057600052602060002091601f016020900482015b82811115611ccf578254825591600101919060010190611cb4565b5b509050611cdd9190611e51565b5090565b828054828255906000526020600020908101928215611d405760005260206000209182015b82811115611d3f5782829080546001816001161561010002031660029004611d2f929190611c5a565b5091600101919060010190611d06565b5b509050611d4d9190611e76565b5090565b828054600181600116156101000203166002900490600052602060002090601f016020900481019282601f10611d9257805160ff1916838001178555611dc0565b82800160010185558215611dc0579182015b82811115611dbf578251825591602001919060010190611da4565b5b509050611dcd9190611e51565b5090565b828054600181600116156101000203166002900490600052602060002090601f016020900481019282601f10611e1257805160ff1916838001178555611e40565b82800160010185558215611e40579182015b82811115611e3f578251825591602001919060010190611e24565b5b509050611e4d9190611e51565b5090565b611e7391905b80821115611e6f576000816000905550600101611e57565b5090565b90565b611e9f91905b80821115611e9b5760008181611e929190611ea2565b50600101611e7c565b5090565b90565b50805460018160011615610100020316600290046000825580601f10611ec85750611ee7565b601f016020900490600052602060002090810190611ee69190611e51565b5b50565b600081359050611ef98161288c565b92915050565b600082601f830112611f1057600080fd5b8135611f23611f1e82612714565b6126e7565b91508082526020830160208301858383011115611f3f57600080fd5b611f4a838284612839565b50505092915050565b600081359050611f62816128a3565b92915050565b600060208284031215611f7a57600080fd5b6000611f8884828501611eea565b91505092915050565b600060208284031215611fa357600080fd5b600082013567ffffffffffffffff811115611fbd57600080fd5b611fc984828501611eff565b91505092915050565b60008060408385031215611fe557600080fd5b600083013567ffffffffffffffff811115611fff57600080fd5b61200b85828601611eff565b925050602083013567ffffffffffffffff81111561202857600080fd5b61203485828601611eff565b9150509250929050565b60008060006060848603121561205357600080fd5b600084013567ffffffffffffffff81111561206d57600080fd5b61207986828701611eff565b935050602084013567ffffffffffffffff81111561209657600080fd5b6120a286828701611eff565b92505060406120b386828701611f53565b9150509250925092565b6000602082840312156120cf57600080fd5b60006120dd84828501611f53565b91505092915050565b60006120f28383612285565b905092915050565b612103816127f1565b82525050565b60006121148261277a565b61211e81856127a8565b93508360208202850161213085612740565b8060005b8581101561216c578484038952815161214d85826120e6565b94506121588361279b565b925060208a01995050600181019050612134565b50829750879550505050505092915050565b61218781612803565b82525050565b6000815460018116600081146121aa57600181146121cf57612213565b607f60028304166121bb81876127b9565b955060ff1983168652808601935050612213565b600282046121dd81876127b9565b95506121e885612750565b60005b8281101561220a578154818901526001820191506020810190506121eb565b82880195505050505b505092915050565b600061222682612790565b61223081856127d5565b9350612240818560208601612848565b6122498161287b565b840191505092915050565b600061225f82612790565b61226981856127e6565b9350612279818560208601612848565b80840191505092915050565b600061229082612785565b61229a81856127c4565b93506122aa818560208601612848565b6122b38161287b565b840191505092915050565b60006122c982612785565b6122d381856127d5565b93506122e3818560208601612848565b6122ec8161287b565b840191505092915050565b60008154600181166000811461231457600181146123395761237d565b607f600283041661232581876127e6565b955060ff198316865280860193505061237d565b6002820461234781876127e6565b955061235285612765565b60005b8281101561237457815481890152600182019150602081019050612355565b82880195505050505b505092915050565b6000612392600a836127d5565b91507f556e64656c6567617465000000000000000000000000000000000000000000006000830152602082019050919050565b60006123d26011836127d5565b91507f7065726d697373696f6e2064656e6965640000000000000000000000000000006000830152602082019050919050565b60006124126019836127d5565b91507f436f6e666572656e636520646f6573206e6f74206578697374000000000000006000830152602082019050919050565b6000612452600c836127d5565b91507f55736572206578697374732e00000000000000000000000000000000000000006000830152602082019050919050565b6000612492600d836127d5565b91507f456e726f6c6c65642066756c6c000000000000000000000000000000000000006000830152602082019050919050565b6124ce8161282f565b82525050565b60006124e0828461218d565b915081905092915050565b60006124f78284612254565b915081905092915050565b600061250e82846122f7565b915081905092915050565b600060208201905061252e60008301846120fa565b92915050565b6000602082019050818103600083015261254e8184612109565b905092915050565b60006020820190508181036000830152612570818461221b565b905092915050565b60006040820190508181036000830152612592818561221b565b905081810360208301526125a6818461221b565b90509392505050565b600060608201905081810360008301526125c981866122be565b905081810360208301526125dd81856122be565b90506125ec604083018461217e565b949350505050565b6000608082019050818103600083015261260e81876122be565b9050818103602083015261262281866122be565b905061263160408301856124c5565b61263e60608301846124c5565b95945050505050565b6000602082019050818103600083015261266081612385565b9050919050565b60006020820190508181036000830152612680816123c5565b9050919050565b600060208201905081810360008301526126a081612405565b9050919050565b600060208201905081810360008301526126c081612445565b9050919050565b600060208201905081810360008301526126e081612485565b9050919050565b6000604051905081810181811067ffffffffffffffff8211171561270a57600080fd5b8060405250919050565b600067ffffffffffffffff82111561272b57600080fd5b601f19601f8301169050602081019050919050565b6000819050602082019050919050565b60008190508160005260206000209050919050565b60008190508160005260206000209050919050565b600081519050919050565b600081519050919050565b600081519050919050565b6000602082019050919050565b600082825260208201905092915050565b600081905092915050565b600082825260208201905092915050565b600082825260208201905092915050565b600081905092915050565b60006127fc8261280f565b9050919050565b60008115159050919050565b600073ffffffffffffffffffffffffffffffffffffffff82169050919050565b6000819050919050565b82818337600083830152505050565b60005b8381101561286657808201518184015260208101905061284b565b83811115612875576000848401525b50505050565b6000601f19601f8301169050919050565b612895816127f1565b81146128a057600080fd5b50565b6128ac8161282f565b81146128b757600080fd5b5056fea365627a7a72315820d25dc455bc99e967c712a45e3e0fec6b33c4b13e2c4a587ad8eb2c907943eb416c6578706572696d656e74616cf564736f6c63430005100040",
  "source": "pragma solidity >=0.4.25 <0.7.0;\r\npragma experimental ABIEncoderV2;\r\n\r\ncontract Enrollment {\r\n    //\r\n    address public admin;\r\n    //\r\n    struct Participant {\r\n        string name;\r\n        string extra;\r\n        string[] confs;\r\n        bool signIn;\r\n    }\r\n\r\n    //\r\n    struct Conference {\r\n        string title;\r\n        string detail;\r\n        uint256 max;\r\n        uint256 current;\r\n    }\r\n\r\n    //\r\n    mapping(address => Participant) public participants;\r\n    //\r\n    mapping(address => Participant[]) trustees;\r\n    mapping(string => address) usernameToAddress;\r\n    //\r\n    Conference[] public conferences;\r\n\r\n    //\r\n    constructor() public {\r\n        admin = msg.sender;\r\n    }\r\n\r\n    //kvparticipants\r\n    //\r\n    function signUp(string memory username, string memory extra)\r\n        public\r\n        returns (string memory, string memory)\r\n    {\r\n        require(\r\n            bytes(participants[msg.sender].name).length <= 0,\r\n            \"User exists.\"\r\n        );\r\n        participants[msg.sender].name = username;\r\n        participants[msg.sender].extra = extra;\r\n        participants[msg.sender].signIn = true;\r\n        usernameToAddress[username] = msg.sender;\r\n        return (participants[msg.sender].name, participants[msg.sender].extra);\r\n    }\r\n\r\n    //\r\n    //MyNewConferencemy conferences\r\n    //title\r\n    function enroll(string memory title)\r\n        public\r\n        returns (string memory)\r\n    {\r\n        for (uint256 i = 0; i < conferences.length; i++) {\r\n            if (\r\n                keccak256(bytes(conferences[i].title)) ==\r\n                keccak256(bytes(title))\r\n            ) {\r\n                require(\r\n                    conferences[i].current < conferences[i].max,\r\n                    \"Enrolled full\"\r\n                );\r\n                conferences[i].current = conferences[i].current + 1;\r\n                if (conferences[i].current == conferences[i].max) {\r\n                    emit ConferenceExpire(title);\r\n                }\r\n                //require(msg.value == 1 ether);\r\n                participants[msg.sender].signIn = false;\r\n                participants[msg.sender].confs.push(title);\r\n                emit MyNewConference(title);\r\n            }\r\n        }\r\n        uint256 len = participants[msg.sender].confs.length;\r\n        require(len > 0, \"Conference does not exist\");\r\n        return participants[msg.sender].confs[len - 1];\r\n    }\r\n\r\n    //\r\n    //title\r\n    function newConference(\r\n        string memory title,\r\n        string memory detail,\r\n        uint256 max\r\n    ) public returns (string memory) {\r\n        require(msg.sender == admin, \"permission denied\");\r\n        conferences.push(Conference(title, detail, max, 0));\r\n        emit NewConference(title, detail);\r\n        return conferences[conferences.length - 1].title;\r\n    }\r\n\r\n    //[\"title1\",\"detail1\",\"title2\",\"detail2\"...]\r\n    function queryConfList() public view returns (string[] memory) {\r\n        uint256 count = 0;\r\n        for (uint256 i = 0; i < conferences.length; i++) {\r\n            if (conferences[i].current < conferences[i].max) {\r\n                count += 2;\r\n            }\r\n        }\r\n\r\n        string[] memory list = new string[](count);\r\n\r\n        count = 0;\r\n        for (uint256 i = 0; i < conferences.length; i++) {\r\n            if (conferences[i].current < conferences[i].max) {\r\n                list[count] = conferences[i].title;\r\n                list[count + 1] = conferences[i].detail;\r\n                count += 2;\r\n            }\r\n        }\r\n\r\n        return list;\r\n    }\r\n\r\n    //\r\n    function queryMyConf() public view returns (string[] memory) {\r\n        return participants[msg.sender].confs;\r\n    }\r\n\r\n    //\r\n    event NewConference(string title, string detail);\r\n    //\r\n    event ConferenceExpire(string title);\r\n    //\r\n    event MyNewConference(string title);\r\n\r\n    function delegate(address addr) public returns (address) {\r\n        trustees[addr].push(participants[msg.sender]);\r\n        // addr.transfer(1 ether);\r\n        return addr;\r\n    }\r\n\r\n    function enrollFor(string memory username, string memory title)\r\n        public\r\n        returns (string memory)\r\n    {\r\n        bool flag = false;\r\n        uint256 index = 0;\r\n        for (uint256 i = 0; i < trustees[msg.sender].length; i++) {\r\n            if (\r\n                keccak256(bytes(trustees[msg.sender][i].name)) ==\r\n                keccak256(bytes(username))\r\n            ) {\r\n                flag = true;\r\n                index = i;\r\n                break;\r\n            }\r\n        }\r\n        require(flag == true, \"Undelegate\");\r\n        for (uint256 i = 0; i < conferences.length; i++) {\r\n            if (\r\n                keccak256(bytes(conferences[i].title)) ==\r\n                keccak256(bytes(title))\r\n            ) {\r\n                require(\r\n                    conferences[i].current < conferences[i].max,\r\n                    \"Enrolled full\"\r\n                );\r\n                conferences[i].current = conferences[i].current + 1;\r\n                if (conferences[i].current == conferences[i].max) {\r\n                    emit ConferenceExpire(title);\r\n                }\r\n                //require(msg.value == 1 ether);\r\n                participants[usernameToAddress[trustees[msg.sender][index]\r\n                    .name]]\r\n                    .confs\r\n                    .push(title);\r\n                participants[usernameToAddress[trustees[msg.sender][index]\r\n                    .name]]\r\n                    .signIn = false;\r\n            }\r\n        }\r\n        uint256 len = participants[usernameToAddress[trustees[msg.sender][index]\r\n            .name]]\r\n            .confs\r\n            .length;\r\n        require(len > 0, \"Conference does not exist\");\r\n        return\r\n            participants[usernameToAddress[trustees[msg.sender][index].name]]\r\n                .confs[len - 1];\r\n    }\r\n\r\n/*\r\n    function get() public payable {\r\n        require(participants[msg.sender].signIn == false);\r\n        msg.sender.transfer(1 ether);\r\n        participants[msg.sender].signIn = true;\r\n    }\r\n*/\r\n}\r\n",
  "sourcePath": "C:\\Users\\kyp16\\OneDrive\\\\Experiment6\\dapp\\lab8\\contracts\\Enrollment.sol",
  "compiler": {
    "name": "solc",
    "version": "0.5.16+commit.9c3226ce.Emscripten.clang"
  },
  "schemaVersion": "3.4.13",
  "updatedAt": "2023-04-27T03:02:35.773Z",
  "networkType": "ethereum",
  "devdoc": {
    "methods": {}
  },
  "userdoc": {
    "methods": {}
  }
}